:020000040001F9
:10800000D03E0020518201006B8201006D82010090
:108010000000000000000000000000000000000060
:108020000000000000000000000000006F8201005E
:108030000000000000000000718201007382010056
:10804000758201007582010065A20100E99D0100B1
:108050001D9E010000000000D1970100559601000F
:108060007582010075820100CD9E010075820100BC
:108070007582010075820100758201007582010020
:1080800075820100C19D01007582010075820100A9
:10809000559E0100758201005D9E01007582010000
:1080A00075820100758201000000000000000000E0
:1080B00000000000000000000000000000000000C0
:1080C00000F002F800F038F80CA030C80838241886
:1080D0002D18A246671EAB4654465D46AC4201D100
:1080E00000F02AF87E460F3E0FCCB64601263342FA
:1080F00000D0FB1AA246AB4633431847009100005C
:10810000209100000023002400250026103A01D30E
:1081100078C1FBD8520700D330C100D50B6070473F
:1081200010B5782902D100F0F9F810BD002010BD7B
:108130001FB51FBD10B510BD01F032FA1146FFF793
:10814000F7FF06F0BBFA01F04AFA03B4FFF7F2FFBB
:1081500003BC01F04DFA0000401E00BF00BF00BF8D
:1081600000BF00BF00BF00BF00BF00BF00BF00BF17
:1081700000BFF1D170470000401E00BF00BF00BF2C
:1081800000BF00BF00BF00BF00BF00BF00BF00BFF7
:1081900000BFF1D170470000401E00BF00BF00BF0C
:1081A00000BF00BF00BF00BF00BF00BF00BF00BFD7
:1081B00000BFF1D170470000401E00BF00BF00BFEC
:1081C00000BF00BF00BF00BF00BF00BF00BF00BFB7
:1081D00000BFF1D170470000401E00BF00BF00BFCC
:1081E00000BF00BF00BF00BF00BF00BF00BF00BF97
:1081F00000BFF1D170470000401E00BF00BF00BFAC
:1082000000BF00BF00BF00BF00BF00BF00BF00BF76
:1082100000BFF1D17047000070B505460C46164608
:1082200002E00FCC0FC5103E102EFAD2082E02D35A
:1082300003CC03C5083E042E07D301CC01C5361F6D
:1082400003E021782970641C6D1C761EF9D270BD84
:1082500003210C4802680A4302600B4802680A4383
:1082600002600A4880470A480047FEE7FEE7FEE74B
:10827000FEE7FEE7FEE7000006480749074A084B0D
:10828000704700002405004054050040959E010001
:10829000C1800100D02E0020D03E0020D03600202A
:1082A000D03600200FB41CB5074B06AA7B446946A4
:1082B0000090059801F057F90020694601F066F931
:1082C0001CBC08BC04B01847DD12000070B50446A1
:1082D00085690068C10601D5302600E02026C00768
:1082E00007D070BD62683046A1689047206A401C84
:1082F00020626D1EF6D570BD70B5044685690078A4
:10830000C00707D170BD6268A16820209047206A2D
:10831000401C20626D1EF6D570BD000070B504468D
:108320000D4621461068C046C0462188090502D581
:108330000F4A7A4402E00E4A7A440E322346002164
:10834000243305E006070009360F965D5E54491C8C
:108350000028F7D120780023000705D5702D03D021
:10836000002901D002231132204601F09EF870BD91
:10837000CA8D0000F3B50446002081B0206220467B
:10838000E168884700287DD0252802D06268A1686E
:1083900083E0454F00257F442046E1688847202838
:1083A000064608DB312E06D2B8192038007800289E
:1083B00001D00543F0E7A80701D50420854300203C
:1083C000E0610746A0612A2E0AD0304601F0ACFFDA
:1083D000002827D0B8000019303E0090866119E0CF
:1083E0000298BA00121902C8916102902046E16811
:1083F0008847012F064617D1E06900281FDA2020A0
:1084000085431CE000980A2180694843009980193F
:10841000303888612046E1688847064601F084FFCD
:108420000028EFD1012F0AD02E2E08D12046E16876
:1084300088470646202005437F1C022FC3DBA06926
:10844000002803DA4042A06101200543E80701D07B
:1084500010208543002E24D030464138192803D8F7
:108460000120C00205432036204625603146029A8D
:108470001546FFF755FE00280CD0012807D0ED1D4A
:10848000E80800E00DE0C0000830029077E72D1DFD
:10849000029574E762683046A1689047206A401CE4
:1084A0006CE7206AFEBD00008E8D0000034610B50B
:1084B0000B439B070FD1042A0DD308C810C9121F04
:1084C000A342F8D018BA21BA884201D9012010BDC0
:1084D0000020C04310BD002A03D0D30703D0521C94
:1084E00007E0002010BD03780C78401C491C1B1BC2
:1084F00007D103780C78401C491C1B1B01D1921E2C
:10850000F1D1184610BDF8B5042A2CD3830712D038
:108510000B78491C0370401C521E83070BD00B784C
:10852000491C0370401C521E830704D00B78491C61
:108530000370401C521E8B079B0F05D0C91ADF0029
:108540002023DE1B08C90AE0FFF766FEF8BD1D46C2
:1085500008C9FD401C46B4402C4310C0121F042A19
:10856000F5D2F308C91A521EF0D40B78491C0370D7
:10857000401C521EEAD40B78491C0370401C012A8F
:10858000E4D409780170F8BD01E004C0091F042992
:10859000FBD28B0701D50280801CC90700D0027076
:1085A000704700290BD0C30702D00270401C491E3F
:1085B000022904D3830702D50280801C891EE3E7C9
:1085C0000022EEE70022DFE7F8B507460B46394602
:1085D0001943890713D1164CE601042A0FD302CBA5
:1085E0000D1B8D43354202D102C0121FF5E7CBB2FD
:1085F0000370401C521E002B13D0090AF7E7002A13
:1086000014D01978521E5B1C0170401C002908D040
:10861000002A0BD01978521E5B1C0170401C0029E7
:10862000EDD1002A02D01146FFF7CAFF3846F8BD47
:1086300001010101002203098B422CD3030A8B4262
:1086400011D300239C464EE003460B433CD400224A
:1086500043088B4231D303098B421CD3030A8B425C
:1086600001D394463FE0C3098B4201D3CB01C01A2A
:10867000524183098B4201D38B01C01A52414309F5
:108680008B4201D34B01C01A524103098B4201D3E3
:108690000B01C01A5241C3088B4201D3CB00C01A50
:1086A000524183088B4201D38B00C01A52414308C8
:1086B0008B4201D34B00C01A5241411A00D20146ED
:1086C0005241104670475DE0CA0F00D04942031086
:1086D00000D34042534000229C4603098B422DD3D5
:1086E000030A8B4212D3FC22890112BA030A8B427D
:1086F0000CD3890192118B4208D3890192118B42CC
:1087000004D389013AD0921100E08909C3098B4250
:1087100001D3CB01C01A524183098B4201D38B0193
:10872000C01A524143098B4201D34B01C01A524136
:1087300003098B4201D30B01C01A5241C3088B427B
:1087400001D3CB00C01A524183088B4201D38B0066
:10875000C01A5241D9D243088B4201D34B00C01AF0
:108760005241411A00D20146634652415B10104605
:1087700001D34042002B00D54942704763465B104D
:1087800000D3404201B50020C046C04602BD70473C
:10879000704770470246C80FC00781434B0030B591
:1087A0004B405B009B0D20D01923DB06C918012329
:1087B0001B05994220DB0324A40704251346AB4084
:1087C0000BD3002B04D1EB0613409B00E34204D4EF
:1087D00001246407002312195941FF231B05994204
:1087E0000BD2C9000143500F09E0CB0204D501436D
:1087F0000803024305D0054830BDFF21C9050843E1
:1088000030BD084607210905884330BD0000C07F00
:10881000F0B50C46871A9C410D46861A9D4103D23D
:10882000C01BA141D21963410D0D1F0DC94EEC1B98
:10883000AE435CD07F057F0D0026002F51D02D0563
:10884000AC46A943DD020123ED0A1B051D4320238D
:108850001B1B24D41746E740381871412F46E740C8
:10886000CC199D402818314661410C0D27D1614437
:108870009A4013D50023401C594152000ED14008A4
:10888000400001224B005205D34207D30520400788
:10889000C14201D5B04900E0B0493046F0BD6B009F
:1088A000002A00D001229A181F23203C1B1B01D54F
:1088B000002302E0E540281871410C0DD7D00124B7
:1088C00024050919C407CD0740084908E40F2843C7
:1088D0006144002CD5D00024401C61419A40D0D185
:1088E000CDE76A05520DD9D1C90FC907D5E79C4D0F
:1088F0004E00002801D0012400E0002434195F005C
:10890000002A01D0012600E00026BE19954FAC4296
:108910000CD8AE420AD8B44206D001256D05EC420F
:10892000BCD010461946F0BD9942FCD00020394613
:10893000F0BDF0B51FB40C460F46811A9F41254685
:10894000861A9D4106D20125ED076F40401ABC41B1
:1089500052187B41210D1E0D8D1BAC467D4D8D4364
:108960007ED075056D0D7CD00D05AE46AC431B0366
:108970001B0B794D52429D41202366469B1B14D30D
:108980001746F740381800260090744160462F467D
:108990000741E41900989D402818664116D4714695
:1089A00071189A4025D5012320E093182A466A4180
:1089B0005200002B00D0521C1E23203E9B1B002B7C
:1089C00061DD3541EE1728186641E8D5001876417B
:1089D0005B1C9A4000D3401C4B05F3181524E34060
:1089E00010D3002B52D071467118D30FC01802D388
:1089F000491C05B0F0BD0123DB079A42F9D14008BC
:108A00004000F6E701225205B21801D1002853D0E8
:108A10000123CC0ADB029943891E002A08D1020CEB
:108A200003D0020C0004103902E002460020203975
:108A30000023550B05D112020823550B01D1520119
:108A40000D23550C01D112011B1DD50C01D1920033
:108A50009B1C150D01D152005B1C2025EE1A01E074
:108A60002CE022E00546F54015439840CA1AE1077C
:108A700069181305C918002ABBDA03204007081833
:108A8000C10FC9070FE071466118B2E7F10740084E
:108A90000843711071444A000CD001235B059A42CF
:108AA000A7D2C90FC9070020A3E74905490D26D160
:108AB000002001E00028F4D100219AE7284D66004B
:108AC000002801D0012100E0002171185F00002A78
:108AD00001D0012600E00026BE19224FA94210D87D
:108AE000AE420ED8B14208D001256D05E94206D04C
:108AF0001946A802414010467BE79C4201D021461E
:108B000077E70020394674E710B50C465C4005D580
:108B10000124E4076340FFF70CFF10BDFFF778FE68
:108B200010BD30B40C465C4004D50124E40763401A
:108B300030BC6DE630BCFCE670B50124E407614052
:108B40000D465D4002D4FFF763FE70BD6340FFF742
:108B5000F0FE70BDFF0700000000F0FF0000F07F96
:108B60000000E0FF0000F87FF0B5F94D0C091E0988
:108B70002C402E402F468BB0A7437DD0B543FCD070
:108B8000002E7AD0002CFCD00D465D40ED0F254321
:108B9000AC1BFF25AD0464190894C502440DC9023D
:108BA0002143500DDC0204430120C007014304436C
:108BB000D2020191200C110C00958C460104234631
:108BC0008B430A9161460904E24D8A430991010AE7
:108BD0007D4449198039097805464D4301266D18B1
:108BE000F605751B6943C90C640B891C4C4364185A
:108BF000B5012C1B250C2E04B4434C434D43210CD2
:108C0000691889090591009DE90701D00121C9076B
:108C100004912C4601996708CD072F434C08059D08
:108C2000E10B4D432D0C29466646754302950D46D2
:108C300045432E46029D7D1BB44100950D465D4384
:108C400001942C0C2F040D465543AE462D0C3D438C
:108C5000029503947546049C2D04641B049406D26B
:108C6000029C039D641C002675410395029401AC8F
:108C700070CC009F7D1B01E03EE162E1B44109043C
:108C80000095079101940599A4086143090C0C46CD
:108C90004443650BE7040C4666467443A646640BE2
:108CA0003C43039502947446049DE4042C1B0494F5
:108CB00006D2029C039D641C002675410395029414
:108CC00001AC70CC009F7D1BB44101940C465C4309
:108CD0000095650FE7000C465443A646640F3C43DD
:108CE000039502947446049DE4002C1B049406D260
:108CF000029C039D641C002675410395029401ACFF
:108D000070CC009F7D1BB441AE09AF06049DC90025
:108D1000AD092F43049DA406AD060495079D344379
:108D200069180791059DE10B4D432D0C29466646B8
:108D3000754302950D4645432E46029D7D1BB44169
:108D400000950D465D4301942C0C2F040D465543B0
:108D5000AE462D0C3D43029503947546049C2D04AC
:108D6000641B049406D2029C039D641C002675417A
:108D70000395029401AC70CC009F7D1BB44101941B
:108D80008C050694079C890A611800950791019C3F
:108D90000599A4086143090C0D464543680BEF048F
:108DA0000D46644665436C0B3C43049FED047D1BFC
:108DB000AC4602D20025641C6841009E019D371B11
:108DC00085410846584301950C46460FC50054435B
:108DD000600F28436546E4002C1B02D20025401C8E
:108DE0006E41019D3F1AB5412846BD0980062843C2
:108DF0008446A009BF064E020699A40676180743CA
:108E0000079D002068410A99079019430020099B9B
:108E100000906046FF1913434041E20F64003A435B
:108E2000A4460446D71A8C41A04203D901200090E1
:108E300020463A46C70F941840416246D20F22435B
:108E4000644664000494009CBE466400D71AA4469D
:108E5000044602978C417746002F01D1A04204D9E5
:108E60006046401C8446029A2046C40FA6469418C9
:108E70004041049A0546D20F224364466400D31A47
:108E80008D417146002901D1A84202D928461A46CF
:108E9000641C10430122002800D016436102002008
:108EA000079B891904465C410223002C02DB491808
:108EB00013466441089DCE0A2D145D194B056705C4
:108EC000E10A2C050D1908993E43C9076940002B9A
:108ED00008D0934006D30022761C5141002B01D1CB
:108EE000760876001C4A002D43DB154241D0AA4388
:108EF0003FD030460BB0F0BD06180D464D41174C23
:108F00007642AC411AD395181C465C41134A6D4217
:108F1000A24113D3012252054C00D4420AD15C0075
:108F2000D4420BD04B4002D592021143E2E74900F4
:108F30004908DFE75940C90FC90718E00020084970
:108F4000D8E7054801420DD10342F7D0F2E700000F
:108F50000000FF07658500000000F07F0000E0FFD3
:108F60000000F87F114859400143C01241400020E1
:108F7000C0E70123089A9B069A4205DC03225207A8
:108F80008918C90FC907B5E7052252078918074A8A
:108F90001143D2125140ADE770B515461C4602464A
:108FA0000B4628462146FFF7DFFD70BDFFFFFF7F20
:108FB0000346CA02400D10B510430A1504D001241F
:108FC000E4072043002A05DB0A4CA21A04D4D0404F
:108FD000FF2A00DD002010BD4A00002B01D0012037
:108FE00000E00020101801225205D042F2D8C81724
:108FF000C04310BD1E0400001F22030C02D10F222B
:10900000000402D0030E03D004E0002001467047A4
:109010000002083A030F01D10001121F830F01D192
:109020008000921E002801DB4000521E12055118DC
:109030004205C012411810467047C10FC90700D041
:109040004042012292071143D6E701218907D3E765
:10905000F0B58B4C0F09254689B0BD437BD01D0967
:109060002646AE43FAD00E465E402740F60F3E43FA
:10907000254071D024012142FBD0FF24AD19A40466
:109080002D1B039501252D05DB02DB0AC9022B43AD
:10909000C90A29431E010901040F130F05012143C9
:1090A0001701880B820391432D098C46A90B1E439F
:1090B0008A039543B30B9A0396433F09BA0B940373
:1090C000A74302962E467E430497B6464E19D719FB
:1090D0000C460196544305977E43371B7646BF1BCB
:1090E0003601B646BE0B361900967646BC043719D3
:1090F000009C01D3641C00946400002F01D0012661
:109100003443029E049F754366467E430496760070
:1091100034196E0034190094029C019E1C19664398
:10912000751BAE46069465464519059C05956C432E
:10913000594375460891691A0191049E01465143AD
:10914000A41B0491611A009C0791E10605D06109F6
:109150000122114302E072E06EE06109089D0027E0
:109160002C0A2D066918049D7C412A0A2D066918CF
:10917000019D6241AC0DAD026D185441079A910DED
:10918000920255196141029A644658435443069B22
:10919000059A5A43121A131B9A0E9B015B187A41C7
:1091A000010B0005C3185141220A200644195A41F7
:1091B0009A4200D2491C01204002814203D3152368
:1091C0000226F64302E014230326F6432020C51AA4
:1091D000A9401746AF40DA400A4320460399D840D9
:1091E0000914731819055118039A3843D2075140CE
:1091F000AC4009D00122944006D30022401C5141CA
:10920000002C01D1400840001E4A934212D3012293
:1092100003989206904207DB0520400709181A4878
:109220000143C012414004E0032040070818C10F69
:10923000C907002009B0F0BD0020F107FAE70518C2
:109240000C464C4111486D42A04115D394181A4662
:109250005A410E48644290410ED301204A00400515
:10926000824209D35A00824206D35940C90F084AA4
:10927000C90700201143DDE700200649DAE70000B6
:109280000000FF07FE070000FFFFFF7F0000E0FF78
:109290000000F07F0000F87F0121C905012341187B
:1092A00042001B06D3185B0E0AD0C1100722D2065B
:1092B000891840075242D14201D55200891870479F
:1092C000090208D50146002A03D0C10FC9070020B2
:1092D000704710467047420202D000200249704792
:1092E000072109050143F4E70000F87FF0B5FF25E9
:1092F0002D04C609C209FF2704462E400137CB09B9
:109300003E4348402A402B400746002A6BD0002BA2
:1093100069D0AA4267D0AB4265D0002800DA324655
:109320000125ED0529432C4309022002090AD21A1E
:109330004B0C7F24E31A434C000A7C44E35C7D24FD
:109340002404121914145B00A218884201D3521C81
:1093500000E0400049420C465C4324115C43DB01C1
:109360006415E318040A5C43C502200D0C4644430F
:109370006419250A5D432303EC0C0D466543000385
:109380000019EB184C42A34201D35B18401CD405D2
:109390002018002B07D05B00C91804D3401C0029FB
:1093A00001D1400840003F2189048A4209D3002AA4
:1093B00008DC1106090F04D0032149074018C00F2B
:1093C000C007F0BD01224100120689187F22520613
:1093D0009142F6D205214907C84201D59010F0BD4F
:1093E000FF20C005F0BD002F00DA32461648AA4221
:1093F00007D2AB4205D21902090E17D0F80FC007E9
:10940000F0BDFF2563002D06AB42F9D84900A94203
:10941000F6D8AB4201D1A942F2D0A94201D1002134
:1094200001E061004908D0050843F0BD1102090EB2
:10943000FBD0FF200243D005F0BD0A46014610468E
:1094400054E700007B7E00000000C07F1F22030C59
:1094500002D10F2200041CD0030E01D10002083AF1
:10946000030F01D10001121F830F01D18000921E52
:10947000002801DB4000521ED2055118021251187B
:109480001922904004D3491C002801D14908490001
:1094900008467047C10FC90700D040420122920719
:1094A0001143D3E701218907D0E7FFB504460D46F4
:1094B00081B0243000902168880604D51022E0692C
:1094C0009143216000E00120A84201DD471B00E03C
:1094D00000270498A1697A191018081AA061207849
:1094E000C00602D42046FEF7F1FE002608E00398ED
:1094F0006268A168805D9047206A401C761C2062EB
:1095000004988642F3DB2078C0060AD52046FEF791
:10951000DDFE06E06268A16830209047206A401CAA
:10952000206238467F1E0028F4DC07E0009862685D
:10953000A168405D9047206A401C206228466D1E4D
:109540000028F3DC2046FEF7D7FE2078000602D57F
:10955000022005B0F0BD0120FBE7000001694A1CB4
:1095600002610878704700B58FB002910021059123
:109570000549019379440391114604906846FEF72A
:10958000F9FE0FB000BD0000E5FFFFFF0A68107094
:10959000521C0A6070470000004870476C2E002083
:1095A0007546FFF7F9FFAE46050069465346C00809
:1095B000C000854618B020B5FEF75EFE60BC0027EF
:1095C0004908B6460026C0C5C0C5C0C5C0C5C0C58F
:1095D000C0C5C0C5C0C5403D49008D46704710B5E7
:1095E0000446C046C0462046FEF7AFFD10BD000051
:1095F00001491820ABBEFEE726000200704770B597
:109600008C180578401C6B075B0F01D10378401C58
:109610002A1106D10278401C03E00678401C0E7027
:10962000491C5B1EF9D12B0705D40023521E0DD413
:109630000B70491CFAE70378401CCB1A921C03E01C
:109640001D780D70491C5B1C521EF9D5A142D8D360
:10965000002070BDF0B589B000BF0020314908601E
:1096600000BF00BF30488068089030480068FFF7AE
:10967000ECFC059104900898FFF70CFF2C49019031
:1096800007F04EFC0746FFF707FE05460022294B70
:10969000FFF76AFA03910290059B049AFFF734FAE8
:1096A00007910690FFF776F805460A211F480068E3
:1096B000FEF7C0FF880020490D501C480068401C80
:1096C0001A4908600A2119480068FEF7B3FF0C46E2
:1096D000002C05D0154800681849096888420DD348
:1096E00017480068002809D00A2110480068FEF7D2
:1096F000A1FF0D461048124A126890470B480068B7
:109700000E490968884205D200BF01200D49086052
:1097100000BF05E000BF01200A49486000BF00BF4C
:1097200009B0F0BD007100400075004034200020F9
:109730009A99993F00F88F406C280020382000202B
:109740004020002000700040F8B507460D46102D5F
:1097500005DA2A4618A13846FEF736FF2AE000BF90
:1097600003F0BEFF0028FBD000240120009000265B
:1097700013E01448805D002803D10098002800D031
:109780000AE0002000900F498A5D6100C8190EA10F
:10979000FEF788FD641C00BF761C062EE9DB600026
:1097A000A84206DA61006A1A6100C81902A1FEF730
:1097B0000BFF00BFF8BD0000536D61727443616E12
:1097C00065000000442000202530325800000000D1
:1097D000F0B585B03048056900203049C8630026DF
:1097E00054E0142070432E49096844180120B04009
:1097F0002C4909680840002846D0002002900190BA
:10980000E068C043684021680840039020460399FF
:1098100006F04EF92048006968402168084004902D
:109820000498002818D0049868400090E068C0436D
:10983000009948402168084007463946204606F00E
:1098400037F9A06800998843384001906068009912
:1098500008403840029000BFA068A8430399084020
:1098600001990843019060682840039908400299D3
:1098700008430290019902980843002803D0226906
:1098800001990298904700BF701CC6B20648007844
:109890008642A6DB05B0F0BD0005005040610040E7
:1098A000C0210020B8210020BD21002010B506F005
:1098B0005FFF002800D110BD0120FCE7F8B5044689
:1098C0000F4615461E466000401CC0B20090002E98
:1098D00001D0012000E0002003462A4639460098C6
:1098E00007F004F8002801D02846F8BD0020FCE766
:1098F000F8B504460F4615461E466006000E009059
:10990000002E01D0012000E0002003462A463946FF
:10991000009806F0EBFF002801D02846F8BD002093
:10992000FCE70000F0B585B0B921262000F0CBF8A7
:109930000027262000F068F80746002000F064F8B1
:10994000074613E0C82004F085FF002000F05CF813
:1099500007460C203840002800D00BE0B921262013
:1099600000F0B1F8002000F04FF807460C20384016
:109970000028E7D000BF012003AB0322014600907E
:10998000602000F06CF86846007B01046846407B6C
:10999000000208436946897B0843044624110120DC
:1099A000C0052040002802D0FF20000604432046C6
:1099B000FFF770FD02900298FFF76EFC054600224B
:1099C000054BFFF7D1F801910090FEF7E3FE0290FE
:1099D000029805B0F0BD00000000304010B50C202A
:1099E00000F012F8044603E00C2000F00DF80446E5
:1099F000C42CF9D1B821262000F065F807211320E6
:109A000000F061F8012010BD11B581B0002409E01B
:109A10000023012201A96020FFF76AFF002800D07F
:109A200002E0641C052CF3DB00BF052C01DBFF20EA
:109A30001CBD002409E00023012269466020FFF7D5
:109A40003DFF002800D002E0641C052CF3DB00BFC2
:109A5000052C02DA68460078EAE7FF20E8E7FFB560
:109A600081B007461D460A9E00240CE00023012217
:109A700002A93846FFF73CFF002800D005E0002E81
:109A800000D102E0641C052CF0DB00BF052C02DBDA
:109A9000002005B0F0BD00240CE001232946384623
:109AA000039AFFF70BFF002800D005E0002E00D13D
:109AB00002E0641C052CF0DB00BF052C01DA01205C
:109AC000E7E70020E5E7F8B506460D46684606706C
:109AD0004570002409E00123022269466020FFF757
:109AE00007FF002800D002E0641C052CF3DB00BF58
:109AF000052C21DA3046FFF787FF054615E00123E4
:109B0000022269466020FFF7F3FE002809D03046A4
:109B1000FFF77AFF054668464078A84201D1012048
:109B2000F8BD641C052C00DD03E068464078A842BF
:109B3000E5D100BF0120F3E70120F1E738B5044685
:109B40000D466B4601222946204600F003F8684680
:109B5000007838BDF8B504460D4616461F4601206C
:109B60003B46324629460090204600F001F8F8BDF9
:109B7000FFB581B007461D460A9E00240CE0002375
:109B8000012202A93846FFF7B3FE002800D005E005
:109B9000002E00D102E0641C052CF0DB00BF052C78
:109BA00001DB05B0F0BD00240CE001232946384656
:109BB000039AFFF783FE002800D005E0002E00D1B5
:109BC00002E0641C052CF0DB00BF00BFE9E770B5C4
:109BD00004460D461646012332462946204600F02B
:109BE00001F870BDFFB581B00C4615461E466846AB
:109BF0000470457000270CE000230222694601989A
:109C0000FFF776FE002800D005E0002E00D102E02C
:109C10007F1C052FF0DB00BF05B0F0BDC206D20EE1
:109C200001219140014A11607047000080E200E08C
:109C3000C206D20E01219140014A11607047000016
:109C400000E100E0C206D20E01219140014A1160FC
:109C50007047000000E200E010B5002819DA1A4A47
:109C600003071B0F083B9B089B00D2588307DC0EA1
:109C7000FF23A3409A438B071B0E8407E40EA340E7
:109C80001A43114B0407240F083CA408A4001A51DE
:109C900018E00E4A03231B02D21883089B00D258F7
:109CA0008307DC0EFF23A3409A438B071B0E840718
:109CB000E40EA3401A43054B032424021B19840815
:109CC000A4001A5110BD00001CED00E000E100E00E
:109CD00010B5002819DA1A4A03071B0F083B9B0826
:109CE0009B00D2588307DC0EFF23A3409A438B07C7
:109CF0001B0E8407E40EA3401A43114B0407240FE4
:109D0000083CA408A4001A5118E00E4A03231B02C1
:109D1000D21883089B00D2588307DC0EFF23A34090
:109D20009A438B071B0E8407E40EA3401A43054B8E
:109D3000032424021B198408A4001A5110BD00003A
:109D40001CED00E000E100E010B5002819DA1A4A25
:109D500003071B0F083B9B089B00D2588307DC0EB0
:109D6000FF23A3409A438B071B0E8407E40EA340F6
:109D70001A43114B0407240F083CA408A4001A51ED
:109D800018E00E4A03231B02D21883089B00D25806
:109D90008307DC0EFF23A3409A438B071B0E840727
:109DA000E40EA3401A43054B032424021B19840824
:109DB000A4001A5110BD00001CED00E000E100E01D
:109DC00010B5002007490860002106484160816005
:109DD000C1600020034940390860486006F0BCFBC0
:109DE00010BD00004011014010B50A4880680128EC
:109DF0000FD10948406804210840002809D00020FC
:109E00000449886005F0D8FF0446204605F0E0FFCD
:109E100000BF10BD003100400033004010B50B48BA
:109E20008068012810D10A484068042108400028B1
:109E30000AD0002005498860012005F0BDFF0446D6
:109E4000204605F0C5FF00BF10BD000000410040E6
:109E50000043004010B506F02FFA10BD70B50C4855
:109E60000068002810D00A4800688047044600BFF8
:109E70002546002D06D000BF00221146284600F0DE
:109E800017FC00BF00BF01E004F088F870BD0000BF
:109E90000022002010B504F00DF9002805D0074875
:109EA00007494860C8130749886104F0E7F80028AB
:109EB00002D001200449886010BD0000DFFF07C008
:109EC00000050040006C00400006004010B5D74877
:109ED0000068D7490860D74915229201891888601F
:109EE000D5480068022804D9D1480068D3498918A8
:109EF00088600020D24908608FE1D248D0490968C3
:109F0000405C00281FD00020CE49CD4A12688854FA
:109F1000CB4800688000CC490858002814D1CB49B0
:109F2000C74A1268885C04F025FDC54909688900A4
:109F3000C74A5058002104F0CDFC0020C0490968F0
:109F40008900C44A505063E1BD4800688000BE49A2
:109F50000858B7490968884214D3BC49B84A1268FE
:109F6000885C04F007FDB64909688900B84A505872
:109F7000012104F0AFFC0020B14909688900B54A0D
:109F8000505045E1AE48006802287DD2AC480068D8
:109F90008000AD490858B0490860A64815218901DC
:109FA0004018A749096889004058AC490860A4488E
:109FB00000688000A7490858002831D1A04A1268DB
:109FC0009200A34B9958A14A9D4B1B68D05C01237A
:109FD000032204F093FC01209949096889009D4AF5
:109FE000505001219348C164152189014018C0686F
:109FF00099490968884208D901219448904A126811
:10A00000805C8000964A8018016093480068894906
:10A010001522920189188A4A126892008850F7E046
:10A0200019E001218348C164014615229201891873
:10A03000C8688A49096805F001FD00280BD07D49F0
:10A04000152292018918C8688349096805F0F6FC51
:10A05000002800D000E0E4E700BF76481521890120
:10A060004018C0687D490968884208D371481521A5
:10A0700089014018C06878490968884213D36D483F
:10A0800015218901401800E021E0C0687349096882
:10A09000884211D26748152189014018C0686E496D
:10A0A0000968884208D301216848654A1268805CC3
:10A0B00080006B4A80180160674800685D4915227E
:10A0C000920189185E4A126892008850A0E05C48AC
:10A0D000006880005C4908585F49086057481521AE
:10A0E0008901411856480068801E800008585B4965
:10A0F000086053480068800056490858002832D14B
:10A100004F4A12689200524B9958504A4C4B1B6868
:10A11000D05C0123032204F0F1FB012048490968C7
:10A1200089004C4A505001214448C16415218901DD
:10A130004018C06848490968884208D90120434945
:10A140003F4A1268895C8900454A8918086042487C
:10A1500001683A4815229201821839480068801E29
:10A160008000115054E019E001213448C1640146D7
:10A17000152292018918C8683849096805F05EFC03
:10A1800000280BD02D49152292018918C868324940
:10A19000096805F053FC002800D000E0E4E700BFA8
:10A1A0002648152189014018C0682C490968884251
:10A1B00008D32248152189014018C068264909683A
:10A1C000884211D31D48152189014018C0682349D0
:10A1D0000968884211D21948152189014018C068C0
:10A1E0001D490968884208D301201849144A126899
:10A1F000895C89001A4A89180860174801680F4865
:10A200001522920182180E480068801E80001150AD
:10A210000B480068401C0A49086009480068064964
:10A220000968884200D268E610BD0000D8200020EE
:10A23000D420002000A00040E42000200090004036
:10A24000EC200020DC200020182A0020E020002044
:10A25000282A0020382A0020F0200020F4200020A6
:10A26000006000401CB524488068002818D02348AE
:10A27000406804210840002812D000201E49886050
:10A280001F488069C0B21F490880042168460170D8
:10A290001C480178684601711B490968884700BF5E
:10A2A0001548C06900280BD0144840688021084038
:10A2B000002805D000201049C861032004F096FC56
:10A2C0000D48406A002816D00C4840680121490218
:10A2D000084000280FD0002007494862084880380D
:10A2E00004680460022069460870019468460649C3
:10A2F0000968884700BF1CBD0021004000230040C2
:10A30000002500407E2100208821002030B47446C2
:10A31000641E2578641CAB4204D3635D5B00E318C4
:10A3200030BC18471D46F8E730380A2801D2012012
:10A3300070470020704710B500F01AF810BD0000FB
:10A3400007480078022802D00120064988600648A4
:10A3500000780649C8610220014908707047000072
:10A360008C210020002000407C210020002500409E
:10A370001CB501200549C8600549087003206946DD
:10A38000087068460349096888471CBD00200040E2
:10A390008C21002088210020002005490870012020
:10A3A0000449C86048600020034908607047000005
:10A3B0008C21002000200040002500407047F8B5A7
:10A3C00004460F46154600260020287020780028F5
:10A3D00009D02A463946204604F0DBF90646002E0D
:10A3E00001D03046F8BDA078002808D0294638466C
:10A3F00000F0CAFD0646002E01D03046F2E7E078B4
:10A4000000280ED002212A78501C2870B95401214E
:10A410002A78501C2870B954E1782A78501C28708A
:10A42000B954606800280BD00020616808562A469D
:10A43000394606F0DFFA0646002E01D03046D1E755
:10A44000208900280CDD3B460622022120460830E8
:10A45000009506F032FC0646002E01D03046C1E7DA
:10A46000208A00280CDD3B460722032120461030BD
:10A47000009506F022FC0646002E01D03046B1E7DA
:10A48000208B00280CDD3B46152214212046183075
:10A49000009506F012FC0646002E01D03046A1E7DA
:10A4A000206A002809D02A463946206A02F012F9AB
:10A4B0000646002E01D0304694E7606A002809D095
:10A4C0002A463946606A04F02FF90646002E01D06C
:10A4D000304687E72C20005D002809DD2A463946F2
:10A4E000204605F025FB0646002E01D0304679E7D0
:10A4F000304677E70146C87804221040002801D191
:10A50000072070470020FCE730B5A1B0264800685E
:10A5100008902648817808A88170302115A8FEF798
:10A5200051F8022110A80175012181750521C1751D
:10A53000302109A8FEF746F801216846818608A95E
:10A540000E9109A915A800F02DFE04460C2C00D18F
:10A5500000BF00BF2546002D06D000BF00221146D7
:10A56000284600F0A5F800BF00BF20216846FEF78E
:10A5700029F801206946087240200390B420049015
:10A5800000230B4A15A800F04BFE044600BF2546E9
:10A59000002D06D000BF00221146284600F088F8A2
:10A5A00000BF00BF21B030BDA01002001822002063
:10A5B0008DE9010070B5022000F0CEFF044600BF17
:10A5C0002546002D06D000BF00221146284600F087
:10A5D0006FF800BF00BF70BD014600BF054A50685C
:10A5E00092058243034B9A609A050240DA6000BFED
:10A5F000704700000005005010B5054800680028AD
:10A6000001D1082010BD0348007800F0D1F8F9E727
:10A610009C210020A8210020FEB506460C461746C6
:10A62000052F01D20720FEBD1A4806601A480470A3
:10A630001A480760002515E0E100881902780092A9
:10A6400081780191019989000522120707231B02D5
:10A65000D318009A9200995000BF027801219140CE
:10A660000D4300BF2046611ECCB20028E4D10C4B44
:10A670002A4629460B4800F019F902900298002852
:10A6800001D00298CFE7084A0021084800F05AFAA2
:10A69000C9E700009C210020A0210020A421002067
:10A6A00095DB0100A821002055C90100AC21002044
:10A6B00070B504460D46164632462946204601F03E
:10A6C000CFF870BDF8B504460D4616460348076836
:10A6D000324629462046B847F8BD00001C2D002010
:10A6E00070B505460C46002C01D1072070BD2046F0
:10A6F0008107890F002901D1012100E000210029F3
:10A7000001D10720F2E713480460134805700020C8
:10A7100012490870124908600F480078142250430B
:10A7200001460C480068FDF74DFF0020C0430D496D
:10A7300088600620012181400B4A116000BF012181
:10A74000FFF7C6FA062001218140084A116000BFC8
:10A750000020CBE7C0210020BC210020BD2100202B
:10A76000B82100200063004080E200E000E100E04A
:10A7700010B502460B480068002801D1082010BD22
:10A7800009480078824201DB0720F8E71420504393
:10A79000044C24680319054800691C6820400860BF
:10A7A0000020ECE7C0210020BD2100200005005062
:10A7B000F0B5024637480068002801D10820F0BDF6
:10A7C00035480078824201DB0720F8E70020334B50
:10A7D000D8633348046933480068002802D158061A
:10A7E000314B5860012090402E4B1B6818432D4B75
:10A7F0001860002314205043264D2D684019C36073
:10A80000002142E001238B40184614235343214D7D
:10A810002D68EB580340002B36D025460540002D0F
:10A8200002D003231B040EE001235B0414255543CF
:10A83000184E3668AD19ED68054314265643154F7A
:10A840003F68F619F56005252D0707263602AD1974
:10A850008E00AD5903263604B54305263607072773
:10A860003F02F6198F00F55105252D070726360200
:10A87000AD198E00AD591D430526360707273F0247
:10A88000F6198F00F55100BF491C2029BAD30020CA
:10A8900095E70000C0210020BD210020406100405C
:10A8A00000050050B821002000630040F8B50446C0
:10A8B0000D4616461F4620480068002801D1082092
:10A8C000F8BD002F01D10720FAE71C4800781C4989
:10A8D0000978884201DB0420F2E728463043174913
:10A8E000097814225143144A1268505013480078D2
:10A8F0001421484310490968401845600F48007802
:10A90000142148430C490968401886600B480078B8
:10A91000142148430849096840180761074800782E
:10A92000207006480078401C04490870207804F024
:10A93000FDF90020C4E70000C0210020BD21002057
:10A94000BC210020F8B505460C462778A068000118
:10A9500005490E58608800902A463946204608303E
:10A960002369B047F8BD00000C2E0020F8B505465D
:10A970000024A87900282FD1142001F0EFF8044614
:10A9800000BF2646002E06D000BF002211463046EA
:10A99000FFF78EFE00BF00BF0620032211460B0406
:10A9A000960033430526360707273F02F61987002E
:10A9B000F35100BF012000070849C8603CDF04468E
:10A9C00000BF2646002E06D000BF002211463046AA
:10A9D000FFF76EFE00BF00BFF8BD0000000500508D
:10A9E00070B506460024072001F0B8F8044600BF01
:10A9F0002546002D06D000BF002211462846FFF74D
:10AA000057FE00BF00BF072003F04CFF7D20C000B1
:10AA100003F020FF072003F035FF00BF2546002D7F
:10AA200006D000BF002211462846FFF741FE00BFB6
:10AA300000BF70BD70B50646002400BF2546002D3E
:10AA400006D000BF002211462846FFF731FE00BFA6
:10AA500000BF70BDF8B505460E46174605200090AC
:10AA600000BF1449087814490978814201D10121B5
:10AA700000E0002100291BD10E480478007803F083
:10AA8000D3FE0C4908700D48008860430C490968E2
:10AA900040182860E0000B49096840188088308021
:10AAA000E00008490968085838600020009000BF9D
:10AAB0000098F8BDCC210020CD210020CE2100201F
:10AAC000C8210020C42100200EB504E0684681881A
:10AAD000009A029890476A4601A902A8FFF7BAFFB8
:10AAE0000028F3D00EBD000030B50346481CC0045A
:10AAF000040C10468507AD0F002D01D1012500E0A3
:10AB00000025002D01D1072030BD08480260101932
:10AB1000074D28600020074D2870074D2870074812
:10AB20000380074801800020EEE70000C4210020D8
:10AB3000C8210020CD210020CC210020CE210020E2
:10AB4000D021002070B503460C4619480068002843
:10AB500001D1082070BD002A01D10720FAE7002B9F
:10AB600001D10720F6E700211CE024204843104DC6
:10AB70002D68285C002814D10125242048430C4E60
:10AB80003668355424204843094D2D6840194470D7
:10AB900024204843064D2D68401982611960002029
:10ABA000D8E7491C034800788142DEDB0420D1E766
:10ABB000D8210020D4210020FFB581B00E461746D1
:10ABC0001C4620468107890F002901D1012100E0A0
:10ABD0000021002902D1072005B0F0BD002C01D1D1
:10ABE0000720F9E704F0FEFE26490A980860264887
:10ABF00006702648046000250CE0002124206843EC
:10AC0000224A1268115424206843204A126880188E
:10AC100001756D1CB542F0DB24207043041903203C
:10AC20001B4908701B480460183400250CE0E9003B
:10AC3000184A1268881800210170417087704460BA
:10AC4000182179430C196D1C032DF0DB0020C04343
:10AC5000114908600020114908701149087014203A
:10AC6000FEF7DCFF03211420FFF76EF81420FEF737
:10AC7000DFFF019804F08CFE04F084FE09490860AF
:10AC80000020A9E7F8210020D4210020D8210020AD
:10AC9000DC210020E0210020E4210020F42100201C
:10ACA000F5210020E8210020FEB504460D46164699
:10ACB00016480068002801D10820FEBD144800781D
:10ACC000844201D2052D01D20720F6E724206043FB
:10ACD0000E490968085C012801D00820EDE724200E
:10ACE00060430A49096840184078012801D1284684
:10ACF00000E00020074605F0B7FF3B462A46214604
:10AD00000096019005F0DEFBD7E70000D821002077
:10AD1000D421002070B504460D480068002801D1F8
:10AD2000082070BD0B480078844201D30720F8E763
:10AD30002420604306490968085C012801D00820E6
:10AD4000EFE705F091FF0546214605F0E5FBE8E752
:10AD5000D8210020D421002001460020074A128873
:10AD6000074B9A4201D1052006E0044A12780A7086
:10AD70000022D243014B1A80704700007E21002040
:10AD8000FFFF0000FFB585B004460E9D0020039034
:10AD90000290714908707149079808600020C0430B
:10ADA0006F4908806078012181406E4A916000BF40
:10ADB000607803F05DFD207803218A0005231B07DE
:10ADC00007273F02DB198700DA5100BF6078664928
:10ADD000C86020784861A06848626079002804D083
:10ADE0000E2061494031C86203E000205E494031D5
:10ADF000C8622079022872D1A07803F039FDA178C9
:10AE000001208840574948600020C04356490861E6
:10AE1000A078886054484030C06A012108435249F4
:10AE20004031C862E1780120884050490860E078EC
:10AE300003210191019A12048B001A4305231B0779
:10AE400007273F02DB198700DA5100BFE1780120B4
:10AE500088400390E17801208840029028880028EB
:10AE600011D1434B4348029A0399FFF71FFD064651
:10AE7000002E02D0304609B0F0BD3E4800780002F6
:10AE8000FF30288008E02888FF2801DA0720F2E751
:10AE9000288800123749087004A936480078FFF75F
:10AEA00067FC0646002E01D03046E4E731480078C2
:10AEB000FFF77EFC0646002E01D03046DBE7E17846
:10AEC0000120884004990840002803D1012003F0A4
:10AED0008DFE29E0002003F089FE25E0FFE72079C0
:10AEE000012811D12888002807D12348007828801C
:10AEF00021480078401C20490870204605F032FEA9
:10AF00000120154908700FE02888002807D11A4849
:10AF10000078288018480078401C1749087005F010
:10AF200001FE01200C4908700020C04313498860CD
:10AF3000A12080004860022001218140104A116058
:10AF400000BF0899FEF788FE0220012181400D4ACA
:10AF5000116000BF00208EE78C2100208821002096
:10AF60007E210020000500500025004084210020A3
:10AF7000D5DB01008121002080210020002300403A
:10AF800080E200E000E100E0F8B505460C462078DC
:10AF9000001D1F2801DD0C20F8BD684679DF06463C
:10AFA000002E01D03046F7E703212278501C207094
:10AFB000A95419212278501C2070A95420784119D5
:10AFC0006846008805F0EEFD2178401820700020CA
:10AFD000E2E7000070B500220121890312480068F1
:10AFE000FFF762FE044600BF2546002D06D000BFD5
:10AFF000002211462846FFF75BFB00BF00BF00227E
:10B000000121890309480068FFF74EFE044600BF8E
:10B010002546002D06D000BF002211462846FFF726
:10B0200047FB00BF00BF70BD142000201820002087
:10B0300070B504460D460548844200D170BD2A46CD
:10B0400021460348FFF734FB00BFF7E75B0500002C
:10B05000AFBEADDE70B586B004460E460025306842
:10B060002062681EA080002004E01D49095C01AA3E
:10B070001154401C1028F8DBA11C01A863DF054611
:10B08000002D02D0284606B070BDA17868468175B3
:10B0900014498182224605A90120A0DF0546002D22
:10B0A00001D02846EFE73146204601F06DFA05460B
:10B0B000002D01D02846E6E73146204601F02AF867
:10B0C0000546002D01D02846DDE73146204605F033
:10B0D00007F80546002D01D02846D4E70020D2E726
:10B0E000242000205634000070B505460C46208808
:10B0F000102804D0112807D050280FD109E021468C
:10B10000284603F0DFFC0AE02146284603F02EFD26
:10B1100005E02146284603F08FFD00E000BF00BF98
:10B1200070BD0000F0B587B004460E4600250496B9
:10B130000020059006900421684681820021C1828A
:10B1400004A80690E18AA08805AAA4DF054600BFEE
:10B150002F46002F06D000BF002211463846FFF7C9
:10B16000A7FA00BF00BFA0880D49884214D0002074
:10B170000090019002900390E18A684601800121CD
:10B180008170C18A818005A8029006980390A088EA
:10B190006946A6DF054600BF284607B0F0BD00009F
:10B1A000FFFF0000F3B593B00D46002112911191FD
:10B1B0001398002814D01398FFF79CF90446002C2C
:10B1C00002D0204615B0F0BD12AA09A91398FFF7C6
:10B1D000F6F80446002C01D02046F3E709AE00E063
:10B1E0000026002D13D0284604F08AFE0446002CC9
:10B1F00001D02046E6E711AA01A92846FFF7DFF8AB
:10B200000446002C01D02046DCE701AF00E0002717
:10B2100010A803793A46017A304672DFD2E700007F
:10B22000F8B504460D4616461F46002C01D0002DE9
:10B2300001D10E20F8BD0020534908705348066024
:10B2400053480760202229465248FCF7E5FF514841
:10B25000C068002803D04F480069002802D10020B0
:10B260004C4908724B488069002803D04948C0699E
:10B27000002802D100204749087500F065F94648CA
:10B28000464908604648886030214648FDF79AF9EB
:10B29000207844490870A0788870E078C870607899
:10B2A0004870626920694A6108610846E268A168DD
:10B2B000C2608160E269A169C2618161606A00283F
:10B2C0001BD039483749486238498160606A008834
:10B2D0003449496A0880606A80883249496A8880AE
:10B2E000002005E0616A8968095C304A1154401CFD
:10B2F0002C49496A89888142F4D8A06A002824D060
:10B300002B492C4881602749886229492548806A51
:10B310008160A06A80882349896A8880A06A008841
:10B320002049896A0880002005E0A16A8968095CD3
:10B330001F4A1154401C1B49896A89888142F4D8EC
:10B340002C20015D174820300173206A00280BD0A3
:10B35000194814490862206A4088096A4880206AAE
:10B3600000881049096A08806068002804D01348E2
:10B370000C4948606068486000210A48FFF712FFE6
:10B380000090009856E70000342100202C21002076
:10B3900030210020042B0020C42A0020B42A0020E1
:10B3A000E42A0020842A0020242B0020302B0020B7
:10B3B0005C2B0020502B00203A2100203E21002051
:10B3C00070B504462088102804D0112806D019280A
:10B3D0007BD11EE0A0883E49088077E000203D49EF
:10B3E00008703D4800793D490870A08838490988AF
:10B3F00088420DD1012000F0AFF80546002D07D09E
:10B4000037480068002803D028463549096888472E
:10B410005CE0A079002857D132480078012804D098
:10B4200002282FD003284DD13EE02C480078002878
:10B4300018DD2D4803F044FC002813D0274800787D
:10B44000401E26490870012000F086F80546002DB0
:10B4500007D023480068002803D0284620490968FF
:10B4600088470EE0022000F077F80546002D07D04F
:10B470001B480068002803D02846194909688847F6
:10B4800000BF20E0022019490870032000F064F892
:10B490000546002D07D012480068002803D0284632
:10B4A0000F49096888470EE00020104908701048CD
:10B4B0000068002804D0084600780D4909688847CC
:10B4C00001E002E000BF00BF00E000BF00BF70BDB0
:10B4D0004021002036210020042B002035210020AF
:10B4E00030210020342100202221002028210020AA
:10B4F0002C21002070B504460025022C02D0032C1C
:10B5000018D100E000BF0D480078002811D00020BD
:10B510000A4908700A48007800F01EF80546002D18
:10B5200007D008480068002803D028460549096864
:10B53000884700E000BF00BF70BD00002021002050
:10B54000342100203021002010B507210148FDF7EB
:10B5500037F810BD2121002030B587B00546874857
:10B560000570684603F016FC0446002C02D0204605
:10B5700007B030BD0098002804D001208049087031
:10B580000020F5E7FFF7E0FF7E484078002812D062
:10B590007A48007801280ED17B480068002807D03F
:10B5A00001207A490870072077490968884702E036
:10B5B0000020764908707148007801280BD1714845
:10B5C0004078002804D0724803F07AFB002802D1AA
:10B5D00002206A4908706B48007A002806D1674843
:10B5E0000078022802D10320644908706548007D74
:10B5F000002808D161480078032804D100205F4961
:10B6000008706449087060480068002817D05B48DB
:10B610000078022803D05948007803280FD15948F0
:10B62000007800280BD05C480078002807D1012062
:10B630005A490870062054490968884702E00020EA
:10B6400056490870182101A8FCF7BCFF0021684684
:10B650000171002002906846017300200490474861
:10B660000078012804D002280FD003286DD13CE0D7
:10B670004748401E02900121684601710021C182A5
:10B68000818201204349087060E03E48008A81B20F
:10B690006846C1823B48808981B2684681824048C1
:10B6A00005F0A2FB00281CD036480078002818D0EE
:10B6B00039480078002814D10220694608733848B8
:10B6C000049004203749C87000213648FFF76AFD0E
:10B6D0000446002C01D020464AE704202D4908707A
:10B6E00002E002202B49087030E02648008B81B22E
:10B6F000684681822348808B81B26846C18228488F
:10B7000005F072FB00281CD01E480078002818D0D5
:10B7100021480078002814D1022069460873204887
:10B72000049004201F49C87000211E48FFF73AFD0D
:10B730000446002C01D020461AE705201549087060
:10B7400002E003201349087000E000BF00BF0B486F
:10B750000078002806D001A873DF0446002C01D031
:10B76000204605E708480068002804D0094800780A
:10B770000549096888470020FAE6000034210020C6
:10B7800020210020042B00202C2100203821002023
:10B7900022210020282100203621002037210020EE
:10B7A000B42A0020842A002070B505461C222946B0
:10B7B0001448FCF731FD0020134908702868002860
:10B7C0000BD0082211482968FCF79DFE0F487ADF4C
:10B7D0000446002C08D0204670BD0C487BDF044690
:10B7E000002C01D02046F7E70020C043084908801C
:10B7F000002008490870084A00210848FFF7A2F90C
:10B80000EAE700007C2B00205C210020442100207E
:10B810004E2100204C210020CD0B02005821002099
:10B8200010B504462088102806D0112808D0122808
:10B830000ED0502810D107E0204603F047F90CE065
:10B84000204603F097F908E0204603F00BFA04E0E5
:10B85000204603F02BF900E000BF00BF10BD000040
:10B8600004460D4616467F2231460948FCF7ACFED9
:10B87000002107486030C17706490D800648046002
:10B88000084600880448006872B600BFFEE7000062
:10B89000982B0020602100206421002010B5044670
:10B8A000204601F013FA2046FFF7BAFF214605486B
:10B8B000FFF71AFC204603F0B7F82046FFF780FD9B
:10B8C00010BD00001822002037B584B004460D4694
:10B8D000002C02D10E2007B030BDA08A0F4988424B
:10B8E00002D0A07D002801D10820F4E76846008B33
:10B8F000142801DD0720EEE700200090019002905F
:10B900000390A18968460180039506A80290012151
:10B9100068468170A08A6946A6DFDCE7FFFF000069
:10B920007CB500BF002348222349092004F078F9A0
:10B93000054600BF2E46002E06D000BF002211464D
:10B940003046FEF7B5FE00BF00BF00BF00200090EC
:10B95000019069460870684660DF044600BF2546CE
:10B96000002D06D000BF002211462846FEF7A0FE9B
:10B9700000BF00BF114804F047F9044600BF254648
:10B98000002D06D000BF002211462846FEF790FE8B
:10B9900000BF00BF0A4804F077F9044600BF2546FF
:10B9A000002D06D000BF002211462846FEF780FE7B
:10B9B00000BF00BF7CBD0000742700209DB80100BF
:10B9C000CD0002007CB50446A1786A460D4803F01C
:10B9D000F7F90546002D13D161781C2251430A4A1C
:10B9E00088181C231A46694603F0F2FA0748807A41
:10B9F000800007490A58214668469047054600BF1F
:10BA00007CBD000068210020DC2C00201C2D0020C3
:10BA1000D8100200F8B505460E4600270024012E76
:10BA200016D10C480068002812D000E0641C022CDB
:10BA300004D2A00008490858A842F7D1022C01D22C
:10BA40000648075D002F03D0384602490968884739
:10BA5000F8BD000014210020B010020018210020C1
:10BA600010B50246022A0FD2094B1B69D843930036
:10BA7000084CE45C0123A3400340002B01D00123C8
:10BA800000E000230B7001E000200870002010BDD2
:10BA900000050050B010020030B5034600224AE015
:10BAA0009000274C2158012090401840002822D0B7
:10BAB000052000070724240200198C0000590324E4
:10BAC0002404A0430524240707252D0264198D00B2
:10BAD0006051052000070724240200198C0000593A
:10BAE0000324240420430524240707252D02641978
:10BAF0008D0060511EE00520000707242402001974
:10BB00008C00005903242404A0430524240707259E
:10BB10002D0264198D0060510520000707242402BE
:10BB200000198C0000590524240707252D026419EB
:10BB30008D006051521C022AB2D3002030BD00009B
:10BB4000B010020002460020022A02D2024B995491
:10BB500000E00720704700001821002070B504465F
:10BB6000002506480078C007C00F002803D02046F3
:10BB700000F064F80546284670BD0000082100204A
:10BB8000F7B505460F4600242348076023480560A3
:10BB90002349029808600220284000281BD0002674
:10BBA00007E030460B30C1B23046FFF7CBFF04460A
:10BBB000761C022E01D2002CF3D0002C05D17A087D
:10BBC00002211848FEF728FD0446002C02D1FEF79A
:10BBD00013FD044600BFE807C00F002809D000BFCE
:10BBE00001208007104988600020C86000BF8805D8
:10BBF0008861002C05D10D4A00210D48FEF7A2FFF7
:10BC00000446002C05D10B4A01210B48FEF79AFF90
:10BC100004462046FEBD000004210020082100202B
:10BC200014210020B81002000005005035E1010089
:10BC30000C210020D9A5010010210020F8B50446F0
:10BC4000002500262300FEF761FB180D16175593FB
:10BC5000D2FCFBFAF9F8F7F6F5F4F3F2F1F0EFEEB7
:10BC6000EDECEBEA00BF0020F9498860C86000BF36
:10BC7000F848047021E200BF00BF0020F44988604A
:10BC8000C86000BF08464068890548400840002851
:10BC90000FD000BF0846EE4988600020C86000BF92
:10BCA000022C02D1E120C00001E07D2040010646C7
:10BCB0000EE000BF01208007E549C86000208860D1
:10BCC00000BF022C01D1C82001E0FF2091300646C0
:10BCD000E048047064213046FCF7ACFCDE4909689A
:10BCE0004843074600223946DC480068FEF7DCFF7F
:10BCF0000546E2E100BF0020D5498860C86000BF6A
:10BD00000846406889054840084000280FD000BF19
:10BD10000846CF4988600020C86000BF032C02D1CC
:10BD20001920400101E07D20400106460EE000BFE1
:10BD300001208007C649C8600020886000BF032C2E
:10BD400001D1C82001E0FF2091300646C1480470AF
:10BD500064213046FCF76EFCBF490968484307463A
:10BD600000223946BD480068FEF79EFF0546A4E163
:10BD700000BF0020B6498860C86000BF0846406820
:10BD800089054840084000280FD000BF0846B04948
:10BD900088600020C86000BF042C02D17D204001D3
:10BDA00001E07D20400106460FE000BF0120800732
:10BDB000A749C8600020886000BF042C02D1FF2082
:10BDC000913001E0FF2091300646A24804706421C2
:10BDD0003046FCF72FFCA04909684843074600227B
:10BDE00039469E480068FEF75FFF054665E100BFE3
:10BDF000002097498860C86000BF084640688905F0
:10BE000048400840002821D000BF0846904988607B
:10BE10000020C86000BF052C14D1C82014E04BE1FD
:10BE20003FE13DE12DE11DE102E1F6E0C6E0C4E0C5
:10BE3000C2E0C0E0BEE0B4E09DE088E071E05CE01C
:10BE40004CE024E07D20400106460EE000BF0120CA
:10BE500080077F49C8600020886000BF052C01D1A1
:10BE6000C82001E0FF20913006467A480470642122
:10BE70003046FCF7DFFB7849096848430746002253
:10BE8000394676480068FEF70FFF054615E100BF0A
:10BE900000206F498860C86000BF08464068890577
:10BEA00048400840002806D000BF0846684988601E
:10BEB0000020C86007E000BF012080076449C86017
:10BEC0000020886000BF6348047063480022016856
:10BED00062480068FEF7E8FE0546EEE000BF00207D
:10BEE0005B498860C86000BF00BF8805C86000204B
:10BEF000886000BF57480470DFE000BF54494868BD
:10BF000089058143524A916091050140D16000BF8B
:10BF100051480022016851480068FEF7C5FE0546F9
:10BF2000CBE000BF4A49486889058143484A91608F
:10BF300091050140D16000BF474800688200811828
:10BF4000002246480068FEF7AFFE0546B5E000BF98
:10BF50003F494868890581433D4A91609105014008
:10BF6000D16000BF3C48002201683C480068FEF7F1
:10BF70009BFE0546A1E000BF35494868890581431D
:10BF8000334A916091050140D16000BF324800689A
:10BF900082008118002231480068FEF785FE0546C0
:10BFA0008BE000BF012080072949C860002088601D
:10BFB00000BF82E000BF00BF00BF00BF284800688C
:10BFC000FEF7A8FE05461120061B002E1CD0002DF2
:10BFD0001AD1012E10D9C821714308466421FCF7FB
:10BFE00029FB1D49096848430746002239461C4879
:10BFF0000068FEF759FE054600BF0120800714497E
:10C00000C8600020886007E000BF01208007104959
:10C0100088600020C86000BF4FE000BF012080079B
:10C020000B4988600020C86000BF0A48047044E0E3
:10C0300000BF002006498860C86000BF00BF8805B7
:10C04000C8600020886000BF0248047035E000002E
:10C050000005005000210020042100200C210020B8
:10C060001021002000BF002015498860C86000BF73
:10C0700000BF8805C8600020886000BF11480470B8
:10C080001BE000BF00200E498860C86000BF00BFF1
:10C090008805C8600020886000BF0A4804700CE072
:10C0A00000BF00BF012080070549C86000208860EC
:10C0B00000BF0448047000E000BF00BF2846F8BD80
:10C0C000000500500021002010B504460B2C02D0C2
:10C0D0000C2C0CD100E00BE0072002F0E3FB7D20EC
:10C0E000C00002F0B7FB072002F0CCFB00E000BF6D
:10C0F00000BF10BD70B504460D46012D03D1207858
:10C100006268904705E0002D03D120780021626825
:10C11000904770BD70B590B004460E4600250020D3
:10C12000089000BF08A8007801090901491C08A867
:10C1300001700078F0218843103008A9087000BF12
:10C1400000BF08A8407801090901491C08A84170EE
:10C150004078F0218843103008A9487000BF08A833
:10C16000807806218843811C08A881701C2109A8B9
:10C17000FCF728FA08A8007902218843811C08A846
:10C180000171007910218843411808A8017100202D
:10C190000A900C900D9008A80E9000200F90A178A6
:10C1A000684681722B4901810020019000BF6846DA
:10C1B000007901090901491C684601710079F021E3
:10C1C000884310306946087100BF00BF6846407957
:10C1D00001090901684641714079F02188436946A7
:10C1E000487100BF6846807906218843811C6846F3
:10C1F0008171807908218843014668468171807980
:10C2000010218843014668468171807941084900C0
:10C2100068468171142103A8FCF7D4F902A80390A1
:10C2200001A804900421684681820021C182042172
:10C23000018300200790208823460E3303AA09A912
:10C24000A2DF0546002D02D0284610B070BD28465A
:10C25000FBE700005834000070470000F0B587B0DD
:10C260000F2755480078142148435349091D4418A5
:10C27000E5682078022804D0042823D005287CD142
:10C280006AE0206905904D48008886026088801B1E
:10C290000690059880190590A088801945190121FC
:10C2A00089020698884206D206988208284605998F
:10C2B00029DF074605E0FF2201322846059929DFDC
:10C2C00007466FE0A06800013D49401800890690CC
:10C2D000A0680001401840890590A068000140183E
:10C2E000406804900498A84205D1059906984843EF
:10C2F0006188884202D0A06802280DD102F014FEA5
:10C30000014603902846FCF795F92C490988461800
:10C31000304628DF07461EE002F006FE0146019087
:10C320002846FCF787F9064602F0FEFD7043281AFE
:10C330008008039002F0F8FD711C48436188491998
:10C34000401A8008029031462046029B039A03F06F
:10C35000E3FD074600BF25E002F0E6FD014604903C
:10C360002846FCF767F9064602F0DEFD7043A18817
:10C370004919081A8008069000E012E002F0D4FD86
:10C38000711C4843A188491962888918401A80089D
:10C39000059031462046059B069A03F0BDFD0746F1
:10C3A00000E000BF00BF002F02D1012002498870C9
:10C3B000384607B0F0BD0000402D00209821002035
:10C3C0000C2E002010B500240848407800280BDD12
:10C3D00006488078002807D1FFF740FF0446002C6C
:10C3E00002D0112C00D10024204610BD402D002089
:10C3F0000023142141430C4A53541421414389180A
:10C400004B8001231421414389188B6000231421A0
:10C4100041438918CB601421414389180B611421D1
:10C42000414389188B807047442D0020FFB581B0AF
:10C43000064617460024224840780A283CD0204867
:10C4400000781F4949784018C4B20A2C02DB204604
:10C450000A38C4B2142060431949091D0E54002241
:10C460001420604340184270142060434018076154
:10C47000142060434118029805C8CA6088601421DE
:10C4800061430F4A121D89180498488014216143A2
:10C4900089180A9888800025101F8078002805D107
:10C4A000FFF7DCFE0546112D00D100250448407839
:10C4B000401C0349487000E00425284605B0F0BD43
:10C4C000402D002010B50020084908800849087058
:10C4D0000849087048708870002403E02046FFF780
:10C4E00087FF641C0A2CF9D310BD0000982100209E
:10C4F0009B210020402D0020FEB51E480068401CF6
:10C50000002834D01B480068242148431A49096890
:10C510004018456803F036FA01901848046821462F
:10C52000019803F0A3FEC61C15480078002801D12D
:10C5300003F03AFAAE4201D2284600E03046041930
:10C540002402240A20460F49086000BF03F01AFAAB
:10C5500000900199009803F089FEC71C20460199BC
:10C5600003F084FE874201D904F044F801E003F0AF
:10C5700039FAFEBDE4210020D8210020E821002066
:10C58000FC2100204015014070B58EB004460E46D7
:10C5900000251C2107A8FCF715F86846007F02213A
:10C5A0008843811C68460177007F08218843411831
:10C5B00068460177002008900A900B900C900D902F
:10C5C000A178684681712B4981800020009000BFCE
:10C5D0006846007801090901491C68460170007825
:10C5E000F021884310306946087000BF00BF6846DC
:10C5F000407801090901491C684641704078F021E2
:10C60000884310306946487000BF6846807806212C
:10C610008843811C684681708078082188430146E0
:10C620006846817080781021884301466846817091
:10C6300080784108490068468170142102A8FBF700
:10C64000C1FF01A80290684603900C2101820021DD
:10C6500041820C218182002006902088A31D02AA1D
:10C6600007A9A2DF0546002D02D028460EB070BDF6
:10C670002846FBE75734000001460888062808DBF7
:10C6800008881922D201904205DD0888104A90429C
:10C6900001D0072070474888062808DB48881922FF
:10C6A000D201904205DD4888094A904201D0072016
:10C6B000F0E70888064A904208D04888904205D0A2
:10C6C00008884A88904201DD0720E3E70020E1E77F
:10C6D000FFFF0000F8B506460D4614462078801D81
:10C6E0001F2801D90C20F8BD3046FFF7C5FF0746CB
:10C6F000002F01D03846F6E705212278501C207023
:10C70000A95412212278501C2070A9542278511962
:10C71000308804F047FA21784018207022785119A7
:10C72000708804F03FFA2178401820700020DAE782
:10C7300010B5044600BF002211462046FDF7B8FFA1
:10C7400000BF10BD30B587B01C216846FBF73AFF2B
:10C75000002000900520C00301900F2000040290EB
:10C760000321684601730021C18101740A480590C4
:10C770000A4806906846FFF717F8044600BF2546AA
:10C78000002D06D000BF002211462846FDF790FF7D
:10C7900000BF00BF07B030BD79EA010031C701001A
:10C7A00038B51F4801F058FC002829D11D480078F1
:10C7B00000280AD01C484069002820D000200090A2
:10C7C000194841696846884719E0184800780028E8
:10C7D00002D11548456801E01348856800222946C2
:10C7E00013480068FEF760FA0446002C07D00E4894
:10C7F0008069002803D00C488169204688470AE0F8
:10C8000009484069002806D0012000900648416987
:10C810006846884700BF00200249087038BD000004
:10C82000502100205C2100207C2B00204C21002086
:10C830005821002070B503460C460820002115E061
:10C840000C254D430B4EAD19AD7A2540002D0CD073
:10C85000094DAB4205D00C254D43AD192D899D42A4
:10C8600002D11160002003E00520491C0029E7D017
:10C8700000BF70BD102D0020FFFF000010B5044662
:10C8800001210C2060430A4A80188172891E0C2005
:10C89000604380180181FF210C2060438018C17221
:10C8A0000C21614388180721FBF78AFE10BD0000A8
:10C8B000102D002070B504460D460A21206AFBF7B2
:10C8C000C3FE684306466421FBF7BEFE70BD10B58B
:10C8D00003464B40184600220AE0C307DB0F002B3B
:10C8E00004D043088C246340184600E04008521CE2
:10C8F000082AF2DB10BD000010B514484068C105DD
:10C90000C90D002920D00A46103A50B200280DDA8D
:10C910000E4B1C330407240F083CA408A4001B5929
:10C920008407E40EE3401B069B0F0BE0084B032437
:10C9300024021B198408A4001B598407E40EE34059
:10C940001B069B0FD8B210BD0420FCE700ED00E0F1
:10C9500000E100E0F8B50746694622480078FDF797
:10C9600007FF0646002E00D0F8BD002534E0E800A1
:10C970001D49096844181D4800682278012191402A
:10C98000084000280FD0606800280CD0607801288B
:10C9900004D100212046FFF7ADFB1BE0012120461A
:10C9A000FFF7A8FB16E0114840682278012191406A
:10C9B000084000280ED0606800280BD0607801285D
:10C9C00004D101212046FFF795FB03E0002120461A
:10C9D000FFF790FB681CC5B2054800788542C6DBAE
:10C9E00000BFC1E7A82100209C210020B021002029
:10C9F000A0210020FEB504460E46A1786A462848CC
:10CA000002F0DEF90546002D49D160780C2148433B
:10CA100024494018807A40210840402801D0022E45
:10CA200001D1214F04E0012E01D1204F00E0204F21
:10CA3000A0781C2250431F4A811800231C226846FC
:10CA4000B8470546002D1AD1022E18D060780C2167
:10CA5000484314494018807A4021884361780C2269
:10CA60005143104A8918887260781C225043124A38
:10CA700081181C231A466846B847054600BF022E97
:10CA80000DD020780C2148430C494018807A800052
:10CA90000B490A58214668469047054600BFFEBD2F
:10CAA00068210020102D0020D9F4010001F20100BE
:10CAB00011FF0100182C0020DC2C00201C2D002070
:10CAC000C8100200F8B505460E461B4F00242EE0A4
:10CAD0001C20604319494018807EFF2826D13078F9
:10CAE000022814D01C2060434018807E0221884315
:10CAF0001C216143114A891888761C2161438918D9
:10CB00000846103007223146FBF7FDFC0BE01C20E5
:10CB100060430A494018807E410849001C20604358
:10CB2000064A801881762C70002702E0641C072CCE
:10CB3000CED300BF3846F8BD43800000182C00203B
:10CB4000F8B505460E4617460520009000241BE068
:10CB5000002D06D11C2060430E494018008BB842BE
:10CB60000DD0002D0FD01C2161430A4A89180846B8
:10CB7000103007222946FBF799FC002803D13460C6
:10CB80000020009002E0641C072CE1D300BF009855
:10CB9000F8BD0000182C00207CB50546A9B26A46F5
:10CBA000084802F00DF90446002C09D154216846CA
:10CBB00002F04EF90446002C02D1284602F08EF80D
:10CBC00020467CBD68210020F8B506460F46144675
:10CBD00000BF2546002D06D000BF00221146284682
:10CBE000FDF766FD00BF00BF0020F8BD7FB502F075
:10CBF000A1F9044600BF2546002D06D000BF002243
:10CC000011462846FDF754FD00BF00BF03A90120CF
:10CC1000FEF726FF044600BF2546002D06D000BFC4
:10CC2000002211462846FDF743FD00BF00BF03A8C0
:10CC300000F076FB044600BF2546002D06D000BF5D
:10CC4000002211462846FDF733FD00BF00BF052135
:10CC500001A80130FBF7B4FC68464079410849005F
:10CC6000491C684641714079022188430146684663
:10CC7000417140791C21884301460C31684641715D
:10CC8000407920218843014668464171072181711E
:10CC90001021C1710B48009001216846017169465D
:10CCA000094800F0BFFC044600BF2546002D06D011
:10CCB00000BF002211462846FDF7FAFC00BF00BF66
:10CCC0007FBD0000C9CB010012200020F0B58FB05D
:10CCD0000446FF200D9000260020079000BFFE486C
:10CCE0000078002801D10FB0F0BD00BF00BFFB48A5
:10CCF0000068002800D1F6E700BF0CA800F002FB96
:10CD0000054600BF2F46002F06D000BF0022114667
:10CD10003846FDF7CDFC00BF00BF0020089000257D
:10CD2000201D0A902A2168468185FF2108A8817468
:10CD30000021017400200E902088102813D0A088B4
:10CD40000EAA0221FFF776FD0546002D0BD10C211E
:10CD50000E984843E2494018C17A08A881740E9899
:10CD6000C1B208A84174208817287BD008DC10289D
:10CD70000DD011287CD0132876D0142875D1B5E0B9
:10CD8000182873D01C2872D05228F7D180E20EAF39
:10CD90003A460121D348FFF74DFD00900098002846
:10CDA00007D102210C2238685043CD4A8018817285
:10CDB00001E00420009000980546002D51D1012685
:10CDC000112108A801710E98C1B208A84174A18868
:10CDD0000C220E985043C24A8018018102210C2275
:10CDE0000E985043BE4A801881720C220E9951430E
:10CDF000BB4A88180722A11DFBF785FB207D304028
:10CE000000280AD0207D4008B749085CFF280AD0D6
:10CE1000207D4008085C0D9005E0B24A0DA9A01DD8
:10CE2000FFF78EFE0546002D1BD10D98C1B20C22D6
:10CE30000E985043AA4A8018C1720C210E9848439C
:10CE400011464018807A082108430C220E9951435C
:10CE5000A34A8918887208A90D9888740CA8FEF74F
:10CE6000B1FD24E2FAE003E085E01FE2ADE118E263
:10CE70000C210E9848439A494018807A0221884331
:10CE80000C220E995143964A891888720C210E98EB
:10CE9000484311464018807A0821084008280ED1DE
:10CEA0000C210E98484311464018807A8021084092
:10CEB00080280FD100210CA8FFF79CFD0AE008A8EC
:10CEC000807CFF2806D008A9887C01F007FFFF209E
:10CED00008A9887410210C220E985043804A8018AB
:10CEE00081720126122008A90871E0E10C210E9838
:10CEF00048437B494018C07AFF2823D1E2890DA915
:10CF00000020FFF71DFE0546002D1BD10D98C1B274
:10CF10000C220E985043724A8018C1720C210E9850
:10CF2000484311464018807A082108430C220E9984
:10CF300051436B4A8918887208A90D9888740CA807
:10CF4000FEF740FD0C210E98484365494018C07A11
:10CF5000FF2805D01C210E984843644940180790CB
:10CF60001C230E995943624BCA18A08800230799C5
:10CF700082DF05469BE1132008A908710C210E9859
:10CF8000484357494018807A042108430C220E99DF
:10CF90005143534A8918887201260C210E98484340
:10CFA00011464018C07AFF2819D10C220E98504320
:10CFB0000A4681180DA8FFF785FD0546002D0BD107
:10CFC00008A90D9888740D98C1B20C220E98504390
:10CFD000434A8018C1721DE0089501261AE0162008
:10CFE00008A9087118220E995143424A8918084627
:10CFF00008300E21FBF7E6FA0C210E984843384919
:10D000004018807A402108430C220E995143344A3B
:10D0100089188872002004900C210E9848433049EA
:10D020004018C07A1C21484331494118059100211C
:10D0300006911C210E9848432C494018019000206D
:10D0400002900390A08801AB244A121D00217FDFCB
:10D050000546002D01D00895002628E11F48407A9A
:10D06000400840001D4948720C210E9848431C4955
:10D070004018807A042188430C220E995143184AA3
:10D0800089188872142008A908710126A07900283F
:10D090000AD00C220E995143114A8918C87AFFF719
:10D0A0007BFDA07908908FE0E0794007C00F002851
:10D0B0007ED008A8807CFF287AD00C210E984843A7
:10D0C00007494018807A082108430C220E995143E1
:10D0D000034A891888720FE0742100201C2D00205B
:10D0E000102D0020FFFF000075210020DC2C002007
:10D0F000182C0020F82C0020E07A8007C00F0028B0
:10D100000FD008A8807C1C21484377494018807EB6
:10D110004108490008A8807C1C225043724A8018AC
:10D1200081760C210E98484370494018C07AFF2838
:10D130004AD00C210E9848436C49085C022820D044
:10D140000C230E9A5A430B46D11808AA927C1C2332
:10D150005A43654BD218104610300722FBF7D3F91B
:10D1600008A8807C1C2148435F494018807E02212A
:10D17000884308A9897C1C2251435B4A8918887618
:10D180001EE01C210E98484359494018418A08A8BE
:10D19000807C1C225043544A8018018308A8807C5C
:10D1A0001C21484311464018807E4108490000E098
:10D1B0000AE008A8807C1C2250434B4A80188176E4
:10D1C00001210CA8FFF716FC71E0A07900090128E5
:10D1D0003DD1A0790007000F012838D10C210E980D
:10D1E000484342494018807A0821084008282ED137
:10D1F00018220E9951433F4A891808180E21FBF74F
:10D20000E1F9162008A908710C210E984843374906
:10D210004018807A202108430C220E995143334A4A
:10D22000891888720C210E98484311464018807A5C
:10D23000402108430C220E9951432C4A89188872C8
:10D240002D48407A022108432B4948721CE00C21EA
:10D250000E98484325494018807A802108430C22C3
:10D260000E995143214A89188872152008A908711E
:10D270002148807A8000214A11580CA88847054629
:10D28000002D01D01E4808900020089001260EE0D5
:10D290001948807A8000194A11580CA888470890CC
:10D2A00005E0132008A90871012600E000BF00BFB7
:10D2B000002E16D009A90CA8089AFDF703FA08A8B1
:10D2C000007912280DD100BF0C210E984843074960
:10D2D0004018807A012802D00E98FFF7CFFA00BFDD
:10D2E00000BF00BFFFE40000182C0020102D00201C
:10D2F000DC2C0020F82C00201C2D0020E81002005F
:10D30000418000000146002901D104487047FF20F8
:10D31000087048708870C8700020F7E70E80000021
:10D320007FB50646002E02D1374804B070BD0024F8
:10D330000FE000BF00210C206043344A11500C2044
:10D340006043801841720C2060438018817200BFD6
:10D35000641C002CEDD0002403E02046FFF78EFA79
:10D36000641C002CF9D018212948FBF72BF9002464
:10D3700006E0204601F0B2FCFF2026490855641C57
:10D38000072CF6D35421684681810721C1812248A8
:10D390000290224902A801F091FE0546002D30D1ED
:10D3A00001201F4908703078002821D100241CE09A
:10D3B000A1B26A46194801F003FD0546002D0FD1C0
:10D3C0001C216143174A881800231C22694601F07A
:10D3D000FFFD0546002D07D000201149087006E02A
:10D3E00000200F49087002E0641C072CE0D308E01D
:10D3F0006A469089D289504381B2084801F028FDDD
:10D400000546284691E700000E8000001C2D0020F4
:10D41000F82C00207521002029D40100682100206B
:10D4200074210020182C0020FFB591B00F461D4636
:10D4300000BF74480068002801D115B0F0BD00BFDE
:10D440001A98542800D9F8E7012007900DA8FFF793
:10D4500059FF064600BF0696069E002E06D000BF66
:10D46000002211460698FDF723F900BF00BF0021F6
:10D4700008A8017501760C951A980B90002006906B
:10D4800016E0069881B208AA5F4801F099FC0646AA
:10D49000002E0AD1082208A91198FBF707F80028E6
:10D4A00003D108A90698887505E00698401C0690E7
:10D4B00006980728E5D300BF08A8807DFF2876D00E
:10D4C000042F0AD11A98542803D1202008A90876DD
:10D4D00073E0402008A908766FE04C49681A1C21C7
:10D4E000FBF7A8F80446072C1DD20AA80F90139842
:10D4F000002810D108A9887D01218140444A126882
:10D500001140002901D0012100E00021002902D1B1
:10D510000020079051E008A9887D03F04DFB2020F2
:10D5200008A9087649E03B49681A1C21FBF782F8F4
:10D530000446002C1AD10AA80F90202108A80176D1
:10D54000447500200490344905911C206043314902
:10D550004018019008A8807D1C2148432B494018A1
:10D56000029001A80C9018200B9026E02B49681A15
:10D570001821FBF75FF80446002C19D1302108A8C8
:10D58000017644750121C1750C206043244940187F
:10D59000807A0221084002280FD008A9497D18226C
:10D5A00051431E4A88181821FBF70CF805E026E0C5
:10D5B00000200790402008A90876079801281ED16E
:10D5C000042F06D108A9087E0321084308A908767C
:10D5D0000EE0032F06D108A9087E0121084308A9FF
:10D5E000087605E008A9087E0221084308A9087604
:10D5F0000AA80F900EA90DA8139AFDF763F800BFB3
:10D600001BE700001C2D002068210020182C0020A2
:10D6100070210020DC2C0020282D0020F82C002078
:10D62000102D002070B505460C4600BF2948007833
:10D63000002801D1284870BD00BF002D02D1264826
:10D64000801DF8E7002C02D12348801DF3E72068F5
:10D65000002802D12048801DEDE7204800680028FE
:10D6600034D11E49206808600522611D1B48001D39
:10D67000FAF749FF2079194988720846007A40086C
:10D68000400008720846007A02218843801C134932
:10D6900008720846007A0421884310490872084637
:10D6A000C07940084000401CC8710846C07902217A
:10D6B0008843801C0949C8710846C0790421884301
:10D6C0000649C87100202870002601E0024E361F6E
:10D6D0003046B0E774210020088000001C2D002097
:10D6E000F8B525480521090707221202891848655F
:10D6F00000BF00BF012040052049C86100BF00BF36
:10D70000C86000BF00BF08211D48FAF759FF02F0AA
:10D710009BF8002828D1332003F072FB02F060F858
:10D720000546072404E002F05BF815490855641E1D
:10D73000022CF8DA02F054F80646012D00D014E06D
:10D7400029460020FFF7C3F80746072406E00C48E7
:10D75000015D3846FFF7BBF80746641E022CF6DA77
:10D76000B74201D10120F8BD00BF08210448FAF7F3
:10D7700027FF0020F7E700000C060000000500501E
:10D7800044200020014614480078144A1278904240
:10D790001DD011480078401C0F4A107010460078C8
:10D7A000022801D1002010700B48007880000C4A3C
:10D7B000105808600B4A086812688018094A1060FF
:10D7C000104600680002000A106001207047002027
:10D7D000086000BFFAE70000F4210020F5210020D6
:10D7E000EC210020E8210020F0B50346002426E0CB
:10D7F000164E366824277E43154F3F68F019466859
:10D800009E4203D94668F61A46601DE046689B1B97
:10D81000466834190026466006750C4E35680B4F75
:10D82000066A3E600669002E08D00E193602360AD6
:10D8300086600669C66016680662156000BF034808
:10D840000068401C0028D3D100BFF0BDE4210020B7
:10D85000D821002030B587B010216846FBF774FF4F
:10D8600000BF6846007C01090901491C0491684613
:10D87000007CF02188431030049000BF0F226946DD
:10D8800004A87CDF044600BF2546002D06D000BF5B
:10D89000002211462846FCF70BFF00BF00BF002006
:10D8A00078DF044600BF2546002D06D000BF0022C9
:10D8B00011462846FCF7FCFE00BF00BF0020059083
:10D8C0000690072168468182F021C18200210183F0
:10D8D000FF219131418305A87ADF044600BF254628
:10D8E000002D06D000BF002211462846FCF7E0FEBE
:10D8F00000BF00BF002077DF044600BF2546002D93
:10D9000006D000BF002211462846FCF7D1FE00BF1A
:10D9100000BF07B030BD014600207047024600201E
:10D920007047024600207047F8B5054600270020E2
:10D930000090002668781821484333494018406811
:10D94000002827D068780C21484330494018807A55
:10D950008021084080281DD168780C2148432B493C
:10D960004018807A40210840402813D06878182158
:10D970004843254940180746083768781821484326
:10D9800021494018808880B2009068781821484367
:10D990001D490E5869780C2251431C4A8918088980
:10D9A00033463946009AA9DF04460B2C0BD10126D9
:10D9B00069780C225143154A89180889334639463B
:10D9C000009AA9DF0446002C00D0114C012E18D17A
:10D9D00069780C2251430D4A891808890D4A0C2197
:10D9E000A7DF0446002C0CD00B48844208D0082C3A
:10D9F00006D0801C844203D0112C01D0002400E00A
:10DA0000034C2046F8BD0000F82C0020102D00200B
:10DA100041800000FFFF00000230000070B50546A5
:10DA20000C466178182251430D4A88183823182271
:10DA3000294601F0CDFA0646002E0FD16078182154
:10DA40004843074940184068401C002806D100217F
:10DA5000607818225043024A80184160304670BDF9
:10DA6000F82C0020F3B585B00C4603270E20049057
:10DA700061780C2251432D4A891808893B4604AA33
:10DA80006946AADF0646002E4DD16178182251431F
:10DA9000274A89180846083069460A8AFAF706FDB7
:10DAA000002812D160780C21484320494018807A20
:10DAB00002210840022836D06178182251431C4ABE
:10DAC00088181821FAF77EFD2DE060781821484368
:10DAD000174940184068002801D0164D00E0164D47
